:100000000C9463000C948B000C948B000C94A7034D
:100010000C94A7030C94A7030C948B000C948B00F6
:100020000C948B000C948B000C948B000C948B0024
:100030000C948B000C948B000C948B000C948B0014
:100040000C945D030C948B000C942B030C9405030F
:100050000C948B000C948B000C948B000C948B00F4
:100060000C948B000C948B0000000008000201002F
:100070000003040700000000000000000000000072
:1000800023002600290000000000240027002A0089
:1000900000000000250028002B00040404040404D0
:1000A0000404020202020202030303030303010227
:1000B00004081020408001020408102001020408F6
:1000C00010206B04870711241FBECFEFD8E0DEBFDE
:1000D000CDBF22E0A8E7B1E001C01D92A538B2076C
:1000E000E1F711E0A0E0B1E0E0E2F4E102C0059048
:1000F0000D92A837B107D9F710E0C2E6D0E004C0EE
:100100002197FE010E940208C136D107C9F70E945B
:1001100054050C94030A0C940000AF92BF92CF9246
:10012000DF92EF92FF920F931F93CF93DF936C01B7
:100130007B018B01040F151FEB015E01AE18BF0898
:10014000C017D10759F06991D601ED91FC9101904A
:10015000F081E02DC6010995892B79F7C501DF9162
:10016000CF911F910F91FF90EF90DF90CF90BF90B4
:10017000AF900895FC01538D448D252F30E0842FDE
:1001800090E0821B930B541710F0CF9608950197BF
:100190000895FC01918D828D981761F0A28DAE0FAC
:1001A000BF2FB11D5D968C91928D9F5F9F73928F33
:1001B00090E008958FEF9FEF0895FC01918D828D5F
:1001C000981731F0828DE80FF11D858D90E008952C
:1001D0008FEF9FEF0895FC01918D228D892F90E084
:1001E000805C9F4F821B91098F739927089585EC3E
:1001F00091E00E94EB0021E0892B09F420E0822F9E
:10020000089580E090E0892B29F00E94F700811189
:100210000C9400000895FC01A48DA80FB92FB11D06
:10022000A35ABF4F2C91848D90E001968F7399272C
:10023000848FA689B7892C93A089B1898C9183700A
:1002400080648C93938D848D981306C00288F38903
:10025000E02D80818F7D80830895EF92FF920F9330
:100260001F93CF93DF93EC0181E0888F9B8D8C8D62
:1002700098131AC0E889F989808185FF15C09FB756
:10028000F894EE89FF896083E889F9898081837019
:10029000806480839FBF81E090E0DF91CF911F91C8
:1002A0000F91FF90EF900895F62E0B8D10E00F5FE9
:1002B0001F4F0F731127E02E8C8D8E110CC00FB6BF
:1002C00007FCFACFE889F989808185FFF5CFCE0157
:1002D0000E940B01F1CFEB8DEC0FFD2FF11DE35AC6
:1002E000FF4FF0829FB7F8940B8FEA89FB898081DA
:1002F0008062CFCFCF93DF93EC01888D8823B9F054
:10030000AA89BB89E889F9898C9185FD03C0808120
:1003100086FD0DC00FB607FCF7CF8C9185FFF2CF9D
:10032000808185FFEDCFCE010E940B01E9CFDF91E7
:10033000CF9108953FB7F8948091BD019091BE018F
:10034000A091BF01B091C00126B5A89B05C02F3F69
:1003500019F00196A11DB11D3FBFBA2FA92F982FEB
:100360008827BC01CD01620F711D811D911D42E0E6
:10037000660F771F881F991F4A95D1F708958F92AE
:100380009F92AF92BF92CF92DF92EF92FF924B017A
:100390005C010E949A016B017C010E949A016C1918
:1003A0007D098E099F09683E734081059105A8F378
:1003B00021E0821A9108A108B10888EEC80E83E0F6
:1003C000D81EE11CF11C81149104A104B10429F789
:1003D000FF90EF90DF90CF90BF90AF909F908F9065
:1003E00008952091C3013091C4012817390771F491
:1003F0009091C1018091C201981741F0E091C10133
:10040000F0E0E858FE4F808190E008958FEF9FEF75
:1004100008950895EF92FF920F931F93CF93DF9368
:10042000DC015C96ED90FC905D97E114F10479F4A9
:1004300081E090E013969C938E93129790E080E079
:10044000DF91CF911F910F91FF90EF9008955196FA
:10045000ED91FC91529750968C915097982F9095D2
:100460000FB75E962C915E97122F127021FD60954A
:10047000F8942081112319F1282B2083E70121977B
:10048000F1F728E0462F50E0308160FF1AC0382B8A
:100490003083E7012197F1F7BA01759567952150EF
:1004A00089F7112381F08081892380830FBF5C96B7
:1004B0008D919C910197F1F781E090E0C1CF2923C4
:1004C000DCCF3923E5CF9081892BEFCF2091C30179
:1004D0003091C4012817390771F48091C20120912D
:1004E000C10190E0805C9F4F821B910960E470E045
:1004F0000E94DA07089590E080E008952091C301FA
:100500003091C40128173907B9F49091C101809145
:10051000C201981789F0E091C101F0E0E858FE4F60
:1005200080812091C10130E02F5F3F4F2F7333272F
:100530002093C10190E008958FEF9FEF089590E020
:1005400080E00895FB0101900020E9F73197AF01A9
:10055000461B570BDC01ED91FC910280F381E02DED
:100560000994CF93DF93FC014481558160817181AF
:1005700082E692E00E948D00EC016AE271E082E680
:1005800092E00E94A2028C0F9D1FDF91CF910895EF
:10059000FC0124813581232B39F421E0FB0180818A
:1005A000882349F020E007C0808191810E94F309EF
:1005B00021E0892BB9F7822F08950F931F93CF93D2
:1005C000DF93EC0188819981009759F02A813B8162
:1005D0002617370730F081E0DF91CF911F910F91FF
:1005E00008958B016F5F7F4F0E942D09009759F08E
:1005F000998388831B830A832C813D81232B59F7A0
:10060000FC011082E8CF80E0E7CF1F920F920FB677
:100610000F9211242F933F934F935F936F937F9388
:100620008F939F93AF93BF93EF93FF9385EC91E0EC
:100630000E940B01FF91EF91BF91AF919F918F911C
:100640007F916F915F914F913F912F910F900FBECE
:100650000F901F9018951F920F920FB60F921124B2
:100660002F938F939F93EF93FF93E091D501F09198
:10067000D6018081E091DB01F091DC0182FD1BC09D
:1006800090818091DE018F5F8F732091DF0182174F
:1006900041F0E091DE01F0E0EB53FE4F958F809347
:1006A000DE01FF91EF919F918F912F910F900FBEDF
:1006B0000F901F9018958081F4CF1F920F920FB664
:1006C0000F9211242F933F938F939F93AF93BF93D8
:1006D0008091B9019091BA01A091BB01B091BC0188
:1006E0003091B80123E0230F2D3758F50196A11D55
:1006F000B11D2093B8018093B9019093BA01A093E2
:10070000BB01B093BC018091BD019091BE01A0914D
:10071000BF01B091C0010196A11DB11D8093BD0123
:100720009093BE01A093BF01B093C001BF91AF9160
:100730009F918F913F912F910F900FBE0F901F901F
:10074000189526E8230F0296A11DB11DD2CF1F9246
:100750000F920FB60F9211242F933F934F935F93F5
:100760006F937F938F939F93AF93BF93EF93FF9379
:10077000E091C301F091C401309749F0A685B78597
:100780008585968D91FF14C09C918923A1F4FF91DA
:10079000EF91BF91AF919F918F917F916F915F91F9
:1007A0004F913F912F910F900FBE0F901F90189572
:1007B0009C91892361F7A389B4899C91858980954F
:1007C00089238C93868997890197F1F7608D718DC4
:1007D000A685B785558538E020E0CB010197F1F774
:1007E000822F90E095958795282F4C91452309F00D
:1007F0002068315091F7868D81FD20958091C2014E
:1008000090E001968F7399273091C101381799F0C4
:10081000A091C201B0E0A858BE4F2C938093C201B2
:10082000828D938D0197F1F7A389B4898C91958975
:10083000892B8C93ACCF868D8160868FF1CF90E031
:10084000FC01E859FF4F2491FC01E255FF4F349120
:10085000FC01E656FF4FE491EE23C9F0222339F064
:10086000233001F1A8F4213019F1223029F1F0E010
:10087000EE0FFF1FE057FF4FA591B4918FB7F8948B
:10088000EC91611126C030953E233C938FBF0895B3
:100890002730A9F02830C9F0243049F78091800032
:1008A0008F7D03C0809180008F7780938000DFCFA1
:1008B00084B58F7784BDDBCF84B58F7DFBCF8091EE
:1008C000B0008F778093B000D2CF8091B0008F7D41
:1008D000F9CF3E2BDACF0F931F93CF93DF93109274
:1008E000C8011092C70188EE93E0A0E0B0E08093C9
:1008F000C9019093CA01A093CB01B093CC012AE027
:1009000031E03093C6012093C50125EC30E03093EF
:10091000D2012093D10124EC30E03093D401209314
:10092000D30120EC30E03093D6012093D50121ECA7
:1009300030E03093D8012093D70122EC30E030939F
:10094000DA012093D90126EC30E03093DC012093CA
:10095000DB011092DE011092DF011092E001109293
:10096000E1011092650210926402809366029093F6
:100970006702A0936802B09369028CE191E09093C2
:1009800063028093620210927902109278021092B0
:100990007B0210927A0210927D0210927C021092D9
:1009A0007F0210927E02609180026E7F6D7F609365
:1009B00080026695617081E068278AE00E941F04CA
:1009C00048EB50E0FA01649184EA90E0FC01249144
:1009D000222399F030E0220F331FF901EA57FF4F2D
:1009E000A591B491F901E057FF4F259134912FB7AC
:1009F000F8943C91632B6C932FBFFA014491409380
:100A00007202FC018491E82FF0E0EE0FFF1FE05727
:100A1000FF4F85919491909374028093730209EB38
:100A200010E0F8012491C5EAD0E0FE01849188230A
:100A3000C9F090E0880F991FFC01EA57FF4FA5917C
:100A4000B491FC01E057FF4F459154913FB7F894A2
:100A50009C91822F809598239C93FA019081892301
:100A600080833FBF8091800281FD04C061E08BE004
:100A70000E941F048BE080936E02F80104910093A2
:100A80006F02FE01C491EC2FF0E0EE0FFF1FE4585F
:100A9000FF4F859194919093710280937002DF9142
:100AA000CF911F910F910895CF93DF93CDB7DEB70C
:100AB000A7970FB6F894DEBF0FBECDBF789484B56C
:100AC000826084BD84B5816084BD85B5826085BD4A
:100AD00085B5816085BD80916E00816080936E00D8
:100AE00010928100809181008260809381008091CA
:100AF000810081608093810080918000816080937B
:100B000080008091B10084608093B1008091B0003A
:100B100081608093B00080917A00846080937A0035
:100B200080917A00826080937A0080917A0081605F
:100B300080937A0080917A00806880937A00109286
:100B4000C10010927D0210927C0210927B021092E2
:100B50007A0210927902109278028DE991E09093D6
:100B60007F0280937E0290916E02963108F047C01A
:100B70002DEB30E030937902209378022BE931E0BD
:100B800030937B0220937A022CE231E030937D0295
:100B900020937C022091680084E0983048F031E096
:100BA0009E3008F430E081E001C0880F3A95EAF702
:100BB000822B809368002DE630E0983050F02BE6D1
:100BC00030E09E3030F02CE630E0963110F030E02E
:100BD00020E03093760220937502292F30E0983080
:100BE00008F0D5C081E001C0880F9A95EAF780939C
:100BF000770280917E0290917F020197F1F78091B8
:100C00007C0290917D02892B49F1E091C301F09122
:100C1000C40182E0E236F80709F1309739F0A38980
:100C2000B4899C918589809589238C9380918002D9
:100C30008E7F809380021092C2011092C10182E6E1
:100C400092E09093C4018093C301E0917502F0910A
:100C50007602808190917702892B8083E091D50183
:100C6000F091D60182E08083E091D101F091D20130
:100C70001082E091D301F091D4018FEC8083109227
:100C8000DD01E091D901F091DA0186E08083E09105
:100C9000D701F091D801808180618083E091D701F4
:100CA000F091D801808188608083E091D701F09134
:100CB000D801808180688083E091D701F091D801CC
:100CC00080818F7D80836DE271E082E692E00E94F8
:100CD000A2026AE271E082E692E00E94A2026DE264
:100CE00071E085EC91E00E94A2026AE271E085EC7D
:100CF00091E00E94A20280E0E82E80E0F82E1BA284
:100D00001AA21DA21CA21FA21EA270E060E0CE01CA
:100D100082960E94DD022AA13BA1811145C02115C6
:100D2000310519F0C9010E94A4081BA21AA21FA232
:100D30001EA21DA21CA285EC91E00E94EB001816D9
:100D40001906D4F585EC91E00E94C90089831A82C6
:100D50000EA11FA10F5F1F4FB801CE0182960E9406
:100D6000DD02882369F02AA13BA18EA19FA1BE01CB
:100D70006F5F7F4F820F931F0E94FC091FA30EA37A
:100D800063E070E080E090E00E94BF01D4CF9E302D
:100D900040F42850310981E001C0880F2A95EAF714
:100DA00026CF2E503109F7CF1FA21EA26CE271E0B0
:100DB000C9010E94FC09BFCF8EA19FA1892B09F414
:100DC00087C067E371E082E692E00E94A202CE0152
:100DD00082960E94B1021A8219821C821B821E8294
:100DE0001D820AA11BA101151105B9F0CEA0DFA03B
:100DF000B601CE0101960E94DD0229813A8181115E
:100E00007DC02115310519F0C9010E94A4081A827C
:100E100019821E821D821C821B8267E471E0CE0152
:100E200001960E94C802811170C06FE471E0CE018A
:100E300001960E94C802811168C06BE571E0CE0185
:100E400001960E94C802811160C06DE571E0CE017B
:100E500001960E94C802811158C06FE571E0CE0171
:100E600001960E94C802811150C061E671E0CE0176
:100E700001960E94C80211E0811101C010E0898131
:100E80009A810E94A40819A280E3810F88A3BE0161
:100E9000605E7F4F82E692E00E94A2026AE271E009
:100EA00082E692E00E94A202111112C063E671E094
:100EB00082E692E00E94A202CE0182960E94B102D6
:100EC0004EA15FA16AA17BA185EC91E00E948D00FB
:100ED00064EF71E080E090E00E94BF018AA19BA1D5
:100EE0000E94A408E114F10409F409CF0E94F7005C
:100EF000882309F404CF0E94000001CFDE82CD8256
:100F0000B801C9010E94FC0988CF11E0B8CF8CE17B
:100F100091E090936302809362028091C30190916B
:100F2000C4018256924071F4E0917502F09176020C
:100F30009081809177028095892380831092C401EB
:100F40001092C30108952F923F924F925F926F9239
:100F50007F928F929F92AF92BF92CF92DF92EF9249
:100F6000FF920F931F93CF93DF93CDB7DEB7CA1BCA
:100F7000DB0B0FB6F894DEBF0FBECDBF09942A88F5
:100F8000398848885F846E847D848C849B84AA849D
:100F9000B984C884DF80EE80FD800C811B81AA812A
:100FA000B981CE0FD11D0FB6F894DEBF0FBECDBFF5
:100FB000ED01089597FB072E16F4009407D077FDF6
:100FC00009D00E94EE0707FC05D03EF4909581956C
:100FD0009F4F0895709561957F4F0895AA1BBB1B85
:100FE00051E107C0AA1FBB1FA617B70710F0A61B29
:100FF000B70B881F991F5A95A9F780959095BC014A
:10100000CD010895EE0FFF1F0590F491E02D099496
:101010000F931F93CF93DF938230910510F482E0FA
:1010200090E0E0918302F091840230E020E0B0E0B3
:10103000A0E0309799F42115310509F44AC0281B26
:10104000390B24303105D8F58A819B8161157105F2
:1010500089F1FB0193838283FE0111C0408151819C
:101060000281138148175907E0F04817590799F48E
:10107000109761F012960C93129713961C93329668
:10108000CF01DF91CF911F910F91089500938302BB
:1010900010938402F4CF2115310551F04217530704
:1010A00038F0A901DB019A01BD01DF01F801C1CFD0
:1010B000EF01F9CF9093840280938302CDCFFE019C
:1010C000E20FF31F819391932250310939832883D2
:1010D000D7CF2091810230918202232B41F42091BD
:1010E000020130910301309382022093810220910A
:1010F0000001309101012115310541F42DB73EB7B2
:101100004091040150910501241B350BE0918102AF
:10111000F0918202E217F307A0F42E1B3F0B281771
:10112000390778F0AC014E5F5F4F2417350748F060
:101130004E0F5F1F509382024093810281939193DF
:101140009FCFF0E0E0E09CCFCF93DF930097E9F0F2
:10115000FC01329713821282A0918302B091840223
:10116000ED0130E020E01097A1F420813181820F61
:10117000931F20918102309182022817390709F0CC
:1011800061C0F0938202E0938102DF91CF910895D4
:10119000EA01CE17DF07E8F54A815B819E01411520
:1011A0005105B1F7E901FB83EA8349915991C40FD5
:1011B000D51FEC17FD0761F4808191810296840FA1
:1011C000951FE90199838883828193819B838A8318
:1011D000F0E0E0E012968D919C9113970097B9F59D
:1011E0002D913C911197CD010296820F931F209172
:1011F0008102309182022817390739F6309751F56C
:101200001092840210928302B0938202A093810212
:10121000BCCFD383C28340815181840F951FC817EF
:10122000D90761F44E5F5F4F88819981480F591F3C
:10123000518340838A819B81938382832115310569
:1012400009F0B0CFF0938402E09383029ECFFD01BA
:10125000DC01C0CF13821282D7CFB0E0A0E0E3E37D
:10126000F9E00C94A5078C01009751F4CB010E9482
:1012700008088C01C801CDB7DEB7E0E10C94C107C6
:10128000FC01E60FF71F9C0122503109E217F3071A
:1012900008F49DC0D901CD91DC911197C617D707ED
:1012A00098F0C530D10530F3CE0104978617970723
:1012B00008F3C61BD70B2297C193D1936D937C93F0
:1012C000CF010E94A408D6CF5B01AC1ABD0A4C0125
:1012D0008C0E9D1EA0918302B0918402512C412C52
:1012E000F12CE12C109731F58091810290918202CE
:1012F0008815990509F05CC04616570608F058C0D5
:101300008091000190910101009741F48DB79EB743
:101310004091040150910501841B950BE817F907D2
:1013200008F055C0F0938202E0938102F9017183C5
:101330006083A0CF8D919C91119712966C9012971B
:1013400013967C901397A815B90559F56C0142E0E6
:10135000C40ED11CCA14DB0420F1AC014A195B098C
:10136000DA011296159780F062827382518340836E
:10137000D9016D937C93E114F10471F0D7011396B8
:10138000FC93EE93129776CF22968C0F9D1FF90156
:1013900091838083F301EFCFF0938402E093830283
:1013A00069CF4816590608F42C017D01D3019ACF64
:1013B000CB010E9408087C01009749F0AE01B801FA
:1013C0000E94EA09C8010E94A408870153CF10E0D7
:1013D00000E050CFFB01DC0102C001900D924150B2
:1013E0005040D8F70895FB01DC018D9101908019E0
:1013F0000110D9F3990B0895FB01DC0101900D92C6
:101400000020E1F7089510E0C2E6D0E004C0FE013C
:101410000E9402082196C336D107C9F7F894FFCF7E
:10142000000085028000000000002D018D00BA0040
:101430007A01EB00C900DD00000000000A028D0007
:101440009F02090266027E02F1010D0A0044656DE9
:10145000617272616765004D6573736167652072C3
:10146000656375203A200053554343455353004E5E
:101470004F545F4F50454E494E47003000310032C7
:1014800000330052656E766F69206475206D657358
:0814900073616765203A20003A
:00000001FF
