:100000000C9463000C948B000C948B000C94D10323
:100010000C94D1030C94D1030C948B000C948B00A2
:100020000C948B000C948B000C948B000C948B0024
:100030000C948B000C948B000C948B000C948B0014
:100040000C9487030C948B000C9455030C942F0391
:100050000C948B000C948B000C948B000C948B00F4
:100060000C948B000C948B0000000008000201002F
:100070000003040700000000000000000000000072
:1000800023002600290000000000240027002A0089
:1000900000000000250028002B00040404040404D0
:1000A0000404020202020202030303030303010227
:1000B00004081020408001020408102001020408F6
:1000C00010209504AF0711241FBECFEFD8E0DEBF8C
:1000D000CDBF22E0A4E8B1E001C01D92A139B20772
:1000E000E1F711E0A0E0B1E0E0E7F4E102C0059043
:1000F0000D92A438B107D9F710E0C2E6D0E004C0F1
:100100002197FE010E942A08C136D107C9F70E9433
:100110007E050C942B0A0C940000AF92BF92CF92F4
:10012000DF92EF92FF920F931F93CF93DF936C01B7
:100130007B018B01040F151FEB015E01AE18BF0898
:10014000C017D10759F06991D601ED91FC9101904A
:10015000F081E02DC6010995892B79F7C501DF9162
:10016000CF911F910F91FF90EF90DF90CF90BF90B4
:10017000AF900895FC01538D448D252F30E0842FDE
:1001800090E0821B930B541710F0CF9608950197BF
:100190000895FC01918D828D981761F0A28DAE0FAC
:1001A000BF2FB11D5D968C91928D9F5F9F73928F33
:1001B00090E008958FEF9FEF0895FC01918D828D5F
:1001C000981731F0828DE80FF11D858D90E008952C
:1001D0008FEF9FEF0895FC01918D228D892F90E084
:1001E000805C9F4F821B91098F739927089581ED41
:1001F00091E00E94EB0021E0892B09F420E0822F9E
:10020000089580E090E0892B29F00E94F700811189
:100210000C9400000895FC01A48DA80FB92FB11D06
:10022000A35ABF4F2C91848D90E001968F7399272C
:10023000848FA689B7892C93A089B1898C9183700A
:1002400080648C93938D848D981306C00288F38903
:10025000E02D80818F7D80830895EF92FF920F9330
:100260001F93CF93DF93EC0181E0888F9B8D8C8D62
:1002700098131AC0E889F989808185FF15C09FB756
:10028000F894EE89FF896083E889F9898081837019
:10029000806480839FBF81E090E0DF91CF911F91C8
:1002A0000F91FF90EF900895F62E0B8D10E00F5FE9
:1002B0001F4F0F731127E02E8C8D8E110CC00FB6BF
:1002C00007FCFACFE889F989808185FFF5CFCE0157
:1002D0000E940B01F1CFEB8DEC0FFD2FF11DE35AC6
:1002E000FF4FF0829FB7F8940B8FEA89FB898081DA
:1002F0008062CFCFCF93DF93EC01888D8823B9F054
:10030000AA89BB89E889F9898C9185FD03C0808120
:1003100086FD0DC00FB607FCF7CF8C9185FFF2CF9D
:10032000808185FFEDCFCE010E940B01E9CFDF91E7
:10033000CF9108953FB7F8948091C9019091CA0177
:10034000A091CB01B091CC0126B5A89B05C02F3F51
:1003500019F00196A11DB11D3FBFBA2FA92F982FEB
:100360008827BC01CD01620F711D811D911D42E0E6
:10037000660F771F881F991F4A95D1F708958F92AE
:100380009F92AF92BF92CF92DF92EF92FF924B017A
:100390005C010E949A016B017C010E949A016C1918
:1003A0007D098E099F09683E734081059105A8F378
:1003B00021E0821A9108A108B10888EEC80E83E0F6
:1003C000D81EE11CF11C81149104A104B10429F789
:1003D000FF90EF90DF90CF90BF90AF909F908F9065
:1003E00008952091CF013091D0012817390771F479
:1003F0009091CD018091CE01981741F0E091CD010F
:10040000F0E0EC57FE4F808190E008958FEF9FEF72
:1004100008950895EF92FF920F931F93CF93DF9368
:10042000DC015C96ED90FC905D97E114F10479F4A9
:1004300081E090E013969C938E93129790E080E079
:10044000DF91CF911F910F91FF90EF9008955196FA
:10045000ED91FC91529750968C915097982F9095D2
:100460000FB75E962C915E97122F127021FD60954A
:10047000F8942081112319F1282B2083E70121977B
:10048000F1F728E0462F50E0308160FF1AC0382B8A
:100490003083E7012197F1F7BA01759567952150EF
:1004A00089F7112381F08081892380830FBF5C96B7
:1004B0008D919C910197F1F781E090E0C1CF2923C4
:1004C000DCCF3923E5CF9081892BEFCF2091CF016D
:1004D0003091D0012817390771F48091CE01209115
:1004E000CD0190E0805C9F4F821B910960E470E039
:1004F0000E940208089590E080E008952091CF01C5
:100500003091D00128173907B9F49091CD0180912D
:10051000CE01981789F0E091CD01F0E0EC57FE4F45
:1005200080812091CD0130E02F5F3F4F2F73332723
:100530002093CD0190E008958FEF9FEF089590E014
:1005400080E00895FB0101900020E9F73197AF01A9
:10055000461B570BDC01ED91FC910280F381E02DED
:100560000994CF93DF93FC014481558160817181AF
:100570008EE692E00E948D00EC016AE271E08EE668
:1005800092E00E94A2028C0F9D1FDF91CF910895EF
:100590000F931F93CF93DF93EC010E94A2028C0173
:1005A0006AE271E0CE010E94A202800F911FDF91EA
:1005B000CF911F910F9108950F931F93CF93DF93C6
:1005C000EC0188819981009759F02A813B81261797
:1005D000370730F081E0DF91CF911F910F9108959F
:1005E0008B016F5F7F4F0E945509009759F09983E7
:1005F00088831B830A832C813D81232B59F7FC01BF
:100600001082E8CF80E0E7CFEF92FF920F931F9325
:10061000CF93DF93EC017B018A01BA010E94DC02D7
:1006200028813981811114C02115310519F0C901C2
:100630000E94CC08198218821D821C821B821A8299
:10064000CE01DF91CF911F910F91FF90EF90089510
:100650001D830C83B701C9010E94240AF1CF1F92A8
:100660000F920FB60F9211242F933F934F935F93E6
:100670006F937F938F939F93AF93BF93EF93FF936A
:1006800081ED91E00E940B01FF91EF91BF91AF913D
:100690009F918F917F916F915F914F913F912F919A
:1006A0000F900FBE0F901F9018951F920F920FB6CC
:1006B0000F9211242F938F939F93EF93FF93E091C9
:1006C000E101F091E2018081E091E701F091E80120
:1006D00082FD1BC090818091EA018F5F8F73209112
:1006E000EB01821741F0E091EA01F0E0EF52FE4F9A
:1006F000958F8093EA01FF91EF919F918F912F91B8
:100700000F900FBE0F901F9018958081F4CF1F920D
:100710000F920FB60F9211242F933F938F939F93B5
:10072000AF93BF938091C5019091C601A091C7017D
:10073000B091C8013091C40123E0230F2D3758F543
:100740000196A11DB11D2093C4018093C501909312
:10075000C601A093C701B093C8018091C9019091CF
:10076000CA01A091CB01B091CC010196A11DB11D90
:100770008093C9019093CA01A093CB01B093CC019F
:10078000BF91AF919F918F913F912F910F900FBE8D
:100790000F901F90189526E8230F0296A11DB11DFA
:1007A000D2CF1F920F920FB60F9211242F933F9327
:1007B0004F935F936F937F938F939F93AF93BF9369
:1007C000EF93FF93E091CF01F091D001309749F082
:1007D000A685B7858585968D91FF14C09C91892348
:1007E000A1F4FF91EF91BF91AF919F918F917F9174
:1007F0006F915F914F913F912F910F900FBE0F908E
:100800001F9018959C91892361F7A389B4899C91C5
:100810008589809589238C93868997890197F1F73B
:10082000608D718DA685B785558538E020E0CB01B8
:100830000197F1F7822F90E095958795282F4C919D
:10084000452309F02068315091F7868D81FD209570
:100850008091CE0190E001968F7399273091CD0160
:10086000381799F0A091CE01B0E0AC57BE4F2C9351
:100870008093CE01828D938D0197F1F7A389B4897E
:100880008C919589892B8C93ACCF868D8160868FD6
:10089000F1CF90E0FC01E859FF4F2491FC01E255B3
:1008A000FF4F3491FC01E656FF4FE491EE23C9F06F
:1008B000222339F0233001F1A8F4213019F122303C
:1008C00029F1F0E0EE0FFF1FE057FF4FA591B49123
:1008D0008FB7F894EC91611126C030953E233C937C
:1008E0008FBF08952730A9F02830C9F0243049F788
:1008F000809180008F7D03C0809180008F778093EE
:100900008000DFCF84B58F7784BDDBCF84B58F7D4A
:10091000FBCF8091B0008F778093B000D2CF8091D1
:10092000B0008F7DF9CF3E2BDACF0F931F93CF937B
:10093000DF931092D4011092D30188EE93E0A0E0EF
:10094000B0E08093D5019093D601A093D701B093E6
:10095000D8012AE031E03093D2012093D10125EC77
:1009600030E03093DE012093DD0124EC30E0309361
:10097000E0012093DF0120EC30E03093E20120938E
:10098000E10121EC30E03093E4012093E30122EC1B
:1009900030E03093E6012093E50126EC30E030931F
:1009A000E8012093E7011092EA011092EB01109206
:1009B000EC011092ED01109271021092700280937E
:1009C000720290937302A0937402B09375028CE14B
:1009D00091E090936F0280936E02109285021092C4
:1009E000840210928702109286021092890210925D
:1009F000880210928B0210928A0260918C026E7FA4
:100A00006D7F60938C026695617081E068278AE053
:100A10000E94490448EB50E0FA01649184EA90E0B6
:100A2000FC012491222399F030E0220F331FF901B9
:100A3000EA57FF4FA591B491F901E057FF4F259177
:100A400034912FB7F8943C91632B6C932FBFFA012C
:100A5000449140937E02FC018491E82FF0E0EE0F78
:100A6000FF1FE057FF4F85919491909380028093F0
:100A70007F0209EB10E0F8012491C5EAD0E0FE0105
:100A800084918823C9F090E0880F991FFC01EA57F0
:100A9000FF4FA591B491FC01E057FF4F4591549150
:100AA0003FB7F8949C91822F809598239C93FA01EC
:100AB0009081892380833FBF80918C0281FD04C097
:100AC00061E08BE00E9449048BE080937A02F80198
:100AD000049100937B02FE01C491EC2FF0E0EE0F35
:100AE000FF1FE458FF4F8591949190937D0280936E
:100AF0007C02DF91CF911F910F910895CF93DF93E7
:100B0000CDB7DEB762970FB6F894DEBF0FBECDBF8C
:100B1000789484B5826084BD84B5816084BD85B5D8
:100B2000826085BD85B5816085BD80916E008160E4
:100B300080936E001092810080918100826080938A
:100B4000810080918100816080938100809180008C
:100B50008160809380008091B10084608093B100B7
:100B60008091B00081608093B00080917A008460B1
:100B700080937A0080917A00826080937A008091DD
:100B80007A00816080937A0080917A0080688093F7
:100B90007A001092C100109289021092880210927D
:100BA00087021092860210928502109284028DE9CB
:100BB00091E090938B0280938A0290917A02963111
:100BC00008F047C02DEB30E030938502209384027B
:100BD0002BE931E030938702209386022CE231E04A
:100BE00030938902209388022091680084E0983035
:100BF00048F031E09E3008F430E081E001C0880F19
:100C00003A95EAF7822B809368002DE630E0983021
:100C100050F02BE630E09E3030F02CE630E096319C
:100C200010F030E020E03093820220938102292FDF
:100C300030E0983008F0CAC081E001C0880F9A9572
:100C4000EAF78093830280918A0290918B02019748
:100C5000F1F78091880290918902892B49F1E09106
:100C6000CF01F091D00182E0EE36F80709F130971C
:100C700039F0A389B4899C918589809589238C93C7
:100C800080918C028E7F80938C021092CE01109204
:100C9000CD018EE692E09093D0018093CF01E09158
:100CA0008102F0918202808190918302892B80835E
:100CB000E091E101F091E20182E08083E091DD01C9
:100CC000F091DE011082E091DF01F091E0018FEC04
:100CD00080831092E901E091E501F091E60186E060
:100CE0008083E091E301F091E40180818061808361
:100CF000E091E301F091E401808188608083E091DC
:100D0000E301F091E401808180688083E091E30158
:100D1000F091E40180818F7D80836DE271E08EE649
:100D200092E00E94C8026DE271E081ED91E00E94C4
:100D3000C80280E0C82E80E0D82E1E861D86188A44
:100D40001F861A8A198A50E040E06CE271E0CE01F9
:100D50000D960E94040318861F821A8619861C8627
:100D60001B8650E040E06CE271E0CE0107960E94E5
:100D7000040381ED91E00E94EB00181619069CF522
:100D800081ED91E00E94C90089831A82E988FA887E
:100D90008FEFE81AF80AB701CE010D960E94DC0227
:100DA000882369F02D853E8589899A89BE016F5F08
:100DB0007F4F820F931F0E94240AFA8AE98A63E018
:100DC00070E080E090E00E94BF01D3CF9E3040F4FD
:100DD0002850310981E001C0880F2A95EAF731CF08
:100DE0002E503109F7CF89899A89892B09F470C06F
:100DF00067E371E08EE692E00E94A202CE010D96BA
:100E00000E94B1021A8219821C821B821E821D82DC
:100E10006D857E856115710531F049895A89CE014C
:100E200001960E940403E980FA808D819E81892BBE
:100E3000C1F067E471E0C7010E941B0A892B09F425
:100E400061C06FE471E0C7010E941B0A892B09F49D
:100E500059C06BE571E0C7010E941B0A11E0892BA4
:100E600009F010E0C7010E94CC08112309F45BC00F
:100E700089899A89892B61F16FE471E08D859E855E
:100E80000E941B0A892B21F562E671E08EE692E052
:100E90000E94C8026BE671E081ED91E00E94A2021F
:100EA00060ED77E080E090E00E94BF014B855C85BB
:100EB0006F81788581ED91E00E948D006FE671E091
:100EC0008EE692E00E94A202CE0107960E94B10235
:100ED0006EE170E080E090E00E94BF018F81988514
:100EE0000E94CC088D859E850E94CC08C114D10437
:100EF00009F423CF0E94F700882309F41ECF0E9433
:100F000000001BCF11E0AECF49895A89CE01079668
:100F10000E9404034B855C856F81788581ED91E0AB
:100F20000E948D00D5CF6FE671E08EE692E00E94C0
:100F3000A202CE010D960E94B1026D857E856115DB
:100F4000710511F78F819885009711F00E94CC08E8
:100F500018861F821C861B861A861986DBCF8CE1B9
:100F600091E090936F0280936E028091CF019091F7
:100F7000D0018E56924071F4E0918102F09182028C
:100F80009081809183028095892380831092D00183
:100F90001092CF0108952F923F924F925F926F92DD
:100FA0007F928F929F92AF92BF92CF92DF92EF92F9
:100FB000FF920F931F93CF93DF93CDB7DEB7CA1B7A
:100FC000DB0B0FB6F894DEBF0FBECDBF09942A88A5
:100FD000398848885F846E847D848C849B84AA844D
:100FE000B984C884DF80EE80FD800C811B81AA81DA
:100FF000B981CE0FD11D0FB6F894DEBF0FBECDBFA5
:10100000ED01089597FB072E16F4009407D077FDA5
:1010100009D00E94160807FC05D03EF490958195F2
:101020009F4F0895709561957F4F0895AA1BBB1B34
:1010300051E107C0AA1FBB1FA617B70710F0A61BD8
:10104000B70B881F991F5A95A9F780959095BC01F9
:10105000CD010895EE0FFF1F0590F491E02D099446
:101060000F931F93CF93DF938230910510F482E0AA
:1010700090E0E0918F02F091900230E020E0B0E04B
:10108000A0E0309799F42115310509F44AC0281BD6
:10109000390B24303105D8F58A819B8161157105A2
:1010A00089F1FB0193838283FE0111C0408151814C
:1010B0000281138148175907E0F04817590799F43E
:1010C000109761F012960C93129713961C93329618
:1010D000CF01DF91CF911F910F91089500938F025F
:1010E00010939002F4CF2115310551F042175307A8
:1010F00038F0A901DB019A01BD01DF01F801C1CF80
:10110000EF01F9CF9093900280938F02CDCFFE0133
:10111000E20FF31F81939193225031093983288381
:10112000D7CF20918D0230918E02232B41F4209154
:1011300002013091030130938E0220938D022091A1
:101140000001309101012115310541F42DB73EB761
:101150004091040150910501241B350BE0918D0253
:10116000F0918E02E217F307A0F42E1B3F0B281715
:10117000390778F0AC014E5F5F4F2417350748F010
:101180004E0F5F1F50938E0240938D028193919377
:101190009FCFF0E0E0E09CCFCF93DF930097E9F0A2
:1011A000FC01329713821282A0918F02B0919002BB
:1011B000ED0130E020E01097A1F420813181820F11
:1011C000931F20918D0230918E022817390709F064
:1011D00061C0F0938E02E0938D02DF91CF9108956C
:1011E000EA01CE17DF07E8F54A815B819E014115D0
:1011F0005105B1F7E901FB83EA8349915991C40F85
:10120000D51FEC17FD0761F4808191810296840F50
:10121000951FE90199838883828193819B838A83C7
:10122000F0E0E0E012968D919C9113970097B9F54C
:101230002D913C911197CD010296820F931F209121
:101240008D0230918E022817390739F6309751F503
:101250001092900210928F02B0938E02A0938D0292
:10126000BCCFD383C28340815181840F951FC8179F
:10127000D90761F44E5F5F4F88819981480F591FEC
:10128000518340838A819B81938382832115310519
:1012900009F0B0CFF0939002E0938F029ECFFD0152
:1012A000DC01C0CF13821282D7CFB0E0A0E0EBE523
:1012B000F9E00C94CD078C01009751F4CB010E940A
:1012C00030088C01C801CDB7DEB7E0E10C94E90726
:1012D000FC01E60FF71F9C0122503109E217F307CA
:1012E00008F49DC0D901CD91DC911197C617D7079D
:1012F00098F0C530D10530F3CE01049786179707D3
:1013000008F3C61BD70B2297C193D1936D937C939F
:10131000CF010E94CC08D6CF5B01AC1ABD0A4C01AC
:101320008C0E9D1EA0918F02B0919002512C412CE9
:10133000F12CE12C109731F580918D0290918E0265
:101340008815990509F05CC04616570608F058C084
:101350008091000190910101009741F48DB79EB7F3
:101360004091040150910501841B950BE817F90782
:1013700008F055C0F0938E02E0938D02F90171835D
:101380006083A0CF8D919C91119712966C901297CB
:1013900013967C901397A815B90559F56C0142E096
:1013A000C40ED11CCA14DB0420F1AC014A195B093C
:1013B000DA011296159780F062827382518340831E
:1013C000D9016D937C93E114F10471F0D701139668
:1013D000FC93EE93129776CF22968C0F9D1FF90106
:1013E00091838083F301EFCFF0939002E0938F021B
:1013F00069CF4816590608F42C017D01D3019ACF14
:10140000CB010E9430087C01009749F0AE01B80181
:101410000E94120AC8010E94CC08870153CF10E035
:1014200000E050CFFB01DC0102C001900D92415061
:101430005040D8F70895FB01DC018D91019080198F
:101440000110D9F3990B0895FB01DC0101900D9275
:101450000020E1F7089510E0C2E6D0E004C0FE01EC
:101460000E942A082196C336D107C9F7F894FFCF06
:10147000000091028000000000002D018D00BA00E4
:101480007A01EB00C900DD00000000000A028D00B7
:101490009F02090266027E02F1010D0A0044656D99
:1014A000617272616765004D657373616765207273
:1014B000656375203A200053554343455353004E0E
:1014C0004F545F4F50454E494E47005455524E457C
:1014D0004400526F746174696F6E00434C4B00524C
:1014E000656E766F69206475206D657373616765DD
:0414F000203A20007E
:107E0000112484B714BE81FFF0D085E080938100F7
:107E100082E08093C00088E18093C10086E0809377
:107E2000C20080E18093C4008EE0C9D0259A86E02C
:107E300020E33CEF91E0309385002093840096BBD3
:107E4000B09BFECF1D9AA8958150A9F7CC24DD24C4
:107E500088248394B5E0AB2EA1E19A2EF3E0BF2EE7
:107E6000A2D0813461F49FD0082FAFD0023811F036
:107E7000013811F484E001C083E08DD089C08234E0
:107E800011F484E103C0853419F485E0A6D080C0E4
:107E9000853579F488D0E82EFF2485D0082F10E0AE
:107EA000102F00270E291F29000F111F8ED06801E7
:107EB0006FC0863521F484E090D080E0DECF843638
:107EC00009F040C070D06FD0082F6DD080E0C81688
:107ED00080E7D80618F4F601B7BEE895C0E0D1E017
:107EE00062D089930C17E1F7F0E0CF16F0E7DF06D8
:107EF00018F0F601B7BEE89568D007B600FCFDCFD4
:107F0000A601A0E0B1E02C9130E011968C91119780
:107F100090E0982F8827822B932B1296FA010C0160
:107F200087BEE89511244E5F5F4FF1E0A038BF0790
:107F300051F7F601A7BEE89507B600FCFDCF97BE46
:107F4000E89526C08437B1F42ED02DD0F82E2BD052
:107F50003CD0F601EF2C8F010F5F1F4F84911BD097
:107F6000EA94F801C1F70894C11CD11CFA94CF0C13
:107F7000D11C0EC0853739F428D08EE10CD085E9AC
:107F80000AD08FE07ACF813511F488E018D01DD067
:107F900080E101D065CF982F8091C00085FFFCCF94
:107FA0009093C60008958091C00087FFFCCF809118
:107FB000C00084FD01C0A8958091C6000895E0E648
:107FC000F0E098E1908380830895EDDF803219F02E
:107FD00088E0F5DFFFCF84E1DECF1F93182FE3DFCA
:107FE0001150E9F7F2DF1F91089580E0E8DFEE27F6
:047FF000FF270994CA
:027FFE00040479
:0400000300007E007B
:00000001FF
